{
  "contractName": "MultiSigWallet",
  "abi": [
    {
      "anonymous": false,
      "inputs": [
        {
          "indexed": false,
          "internalType": "address",
          "name": "who",
          "type": "address"
        }
      ],
      "name": "DeleteSigner",
      "type": "event"
    },
    {
      "anonymous": false,
      "inputs": [
        {
          "indexed": false,
          "internalType": "address",
          "name": "who",
          "type": "address"
        },
        {
          "indexed": false,
          "internalType": "uint256",
          "name": "amount",
          "type": "uint256"
        }
      ],
      "name": "FundsDeposit",
      "type": "event"
    },
    {
      "anonymous": false,
      "inputs": [
        {
          "indexed": false,
          "internalType": "address",
          "name": "who",
          "type": "address"
        },
        {
          "indexed": false,
          "internalType": "uint256",
          "name": "amount",
          "type": "uint256"
        }
      ],
      "name": "FundsWithdraw",
      "type": "event"
    },
    {
      "anonymous": false,
      "inputs": [
        {
          "indexed": true,
          "internalType": "uint128",
          "name": "idx",
          "type": "uint128"
        },
        {
          "indexed": false,
          "internalType": "uint64",
          "name": "requiredSignatures",
          "type": "uint64"
        },
        {
          "indexed": false,
          "internalType": "enum RequestFactory.RequestType",
          "name": "requestType",
          "type": "uint8"
        },
        {
          "indexed": false,
          "internalType": "bytes",
          "name": "data",
          "type": "bytes"
        }
      ],
      "name": "NewRequest",
      "type": "event"
    },
    {
      "anonymous": false,
      "inputs": [
        {
          "indexed": false,
          "internalType": "address",
          "name": "who",
          "type": "address"
        }
      ],
      "name": "NewSigner",
      "type": "event"
    },
    {
      "anonymous": false,
      "inputs": [
        {
          "indexed": true,
          "internalType": "uint128",
          "name": "id",
          "type": "uint128"
        }
      ],
      "name": "RequestExecuted",
      "type": "event"
    },
    {
      "anonymous": false,
      "inputs": [
        {
          "indexed": true,
          "internalType": "uint128",
          "name": "id",
          "type": "uint128"
        }
      ],
      "name": "RequestSigned",
      "type": "event"
    },
    {
      "anonymous": false,
      "inputs": [
        {
          "indexed": false,
          "internalType": "uint256",
          "name": "oldVal",
          "type": "uint256"
        },
        {
          "indexed": false,
          "internalType": "uint256",
          "name": "newVal",
          "type": "uint256"
        }
      ],
      "name": "RequiredSignaturesDecreased",
      "type": "event"
    },
    {
      "anonymous": false,
      "inputs": [
        {
          "indexed": false,
          "internalType": "uint256",
          "name": "oldVal",
          "type": "uint256"
        },
        {
          "indexed": false,
          "internalType": "uint256",
          "name": "newVal",
          "type": "uint256"
        }
      ],
      "name": "RequiredSignaturesIncreased",
      "type": "event"
    },
    {
      "anonymous": false,
      "inputs": [
        {
          "indexed": false,
          "internalType": "address",
          "name": "to",
          "type": "address"
        },
        {
          "indexed": false,
          "internalType": "uint256",
          "name": "value",
          "type": "uint256"
        },
        {
          "indexed": false,
          "internalType": "bytes",
          "name": "txData",
          "type": "bytes"
        }
      ],
      "name": "TransactionSent",
      "type": "event"
    },
    {
      "stateMutability": "payable",
      "type": "receive",
      "payable": true
    },
    {
      "inputs": [
        {
          "internalType": "uint128",
          "name": "_idx",
          "type": "uint128"
        }
      ],
      "name": "execute",
      "outputs": [],
      "stateMutability": "nonpayable",
      "type": "function"
    },
    {
      "inputs": [
        {
          "internalType": "uint128",
          "name": "_idx",
          "type": "uint128"
        }
      ],
      "name": "sign",
      "outputs": [],
      "stateMutability": "nonpayable",
      "type": "function"
    },
    {
      "inputs": [
        {
          "internalType": "address",
          "name": "_who",
          "type": "address"
        }
      ],
      "name": "addSigner",
      "outputs": [],
      "stateMutability": "nonpayable",
      "type": "function"
    },
    {
      "inputs": [
        {
          "internalType": "address",
          "name": "_who",
          "type": "address"
        }
      ],
      "name": "removeSigner",
      "outputs": [],
      "stateMutability": "nonpayable",
      "type": "function"
    },
    {
      "inputs": [],
      "name": "increaseRequiredSignatures",
      "outputs": [],
      "stateMutability": "nonpayable",
      "type": "function"
    },
    {
      "inputs": [],
      "name": "decreaseRequiredSignatures",
      "outputs": [],
      "stateMutability": "nonpayable",
      "type": "function"
    },
    {
      "inputs": [
        {
          "internalType": "address",
          "name": "_to",
          "type": "address"
        },
        {
          "internalType": "uint256",
          "name": "_value",
          "type": "uint256"
        },
        {
          "internalType": "bytes",
          "name": "_data",
          "type": "bytes"
        }
      ],
      "name": "sendTx",
      "outputs": [],
      "stateMutability": "nonpayable",
      "type": "function"
    },
    {
      "inputs": [],
      "name": "deposit",
      "outputs": [],
      "stateMutability": "payable",
      "type": "function",
      "payable": true
    },
    {
      "inputs": [
        {
          "internalType": "uint256",
          "name": "_amount",
          "type": "uint256"
        }
      ],
      "name": "withdraw",
      "outputs": [],
      "stateMutability": "nonpayable",
      "type": "function"
    },
    {
      "inputs": [],
      "name": "withdrawAll",
      "outputs": [],
      "stateMutability": "nonpayable",
      "type": "function"
    },
    {
      "inputs": [],
      "name": "getBalance",
      "outputs": [
        {
          "internalType": "uint256",
          "name": "",
          "type": "uint256"
        }
      ],
      "stateMutability": "view",
      "type": "function",
      "constant": true
    },
    {
      "inputs": [],
      "name": "getContractBalance",
      "outputs": [
        {
          "internalType": "uint256",
          "name": "",
          "type": "uint256"
        }
      ],
      "stateMutability": "view",
      "type": "function",
      "constant": true
    }
  ],
  "bytecode": "0x608060405234801561001057600080fd5b5060018060003373ffffffffffffffffffffffffffffffffffffffff1673ffffffffffffffffffffffffffffffffffffffff16815260200190815260200160002060006101000a81548160ff02191690831515021790555060016002819055506001600381905550613d83806100876000396000f3fe6080604052600436106100ab5760003560e01c80634e389eb3116100645780634e389eb3146101a55780636a00016e146101bc5780636f9fb98a146101e5578063853828b614610210578063d0e30db014610227578063eb12d61e14610231576100ba565b80630e316ab7146100bf57806312065fe0146100e857806312ffbda1146101135780632e1a7d4d1461012a57806338e05c60146101535780634dec37391461017c576100ba565b366100ba576100b861025a565b005b600080fd5b3480156100cb57600080fd5b506100e660048036038101906100e19190612ada565b61032d565b005b3480156100f457600080fd5b506100fd610454565b60405161010a9190612b20565b60405180910390f35b34801561011f57600080fd5b5061012861049a565b005b34801561013657600080fd5b50610151600480360381019061014c9190612b67565b610586565b005b34801561015f57600080fd5b5061017a60048036038101906101759190612bdc565b61070d565b005b34801561018857600080fd5b506101a3600480360381019061019e9190612bdc565b610a94565b005b3480156101b157600080fd5b506101ba61118a565b005b3480156101c857600080fd5b506101e360048036038101906101de9190612d4f565b611274565b005b3480156101f157600080fd5b506101fa611382565b6040516102079190612b20565b60405180910390f35b34801561021c57600080fd5b5061022561140d565b005b61022f61025a565b005b34801561023d57600080fd5b5061025860048036038101906102539190612ada565b6115c8565b005b6000341161029d576040517f08c379a000000000000000000000000000000000000000000000000000000000815260040161029490612e41565b60405180910390fd5b346000803373ffffffffffffffffffffffffffffffffffffffff1673ffffffffffffffffffffffffffffffffffffffff16815260200190815260200160002060008282546102eb9190612e90565b925050819055507f5b78354a8c8b69ca717e50f5f1368634d46a6844eed824e7389bd96f203647463334604051610323929190612ef5565b60405180910390a1565b600160003373ffffffffffffffffffffffffffffffffffffffff1673ffffffffffffffffffffffffffffffffffffffff16815260200190815260200160002060009054906101000a900460ff166103b9576040517f08c379a00000000000000000000000000000000000000000000000000000000081526004016103b090612f90565b60405180910390fd5b600160008273ffffffffffffffffffffffffffffffffffffffff1673ffffffffffffffffffffffffffffffffffffffff16815260200190815260200160002060009054906101000a900460ff16610445576040517f08c379a000000000000000000000000000000000000000000000000000000000815260040161043c90613022565b60405180910390fd5b610451600354826116e6565b50565b60008060003373ffffffffffffffffffffffffffffffffffffffff1673ffffffffffffffffffffffffffffffffffffffff16815260200190815260200160002054905090565b600160003373ffffffffffffffffffffffffffffffffffffffff1673ffffffffffffffffffffffffffffffffffffffff16815260200190815260200160002060009054906101000a900460ff16610526576040517f08c379a000000000000000000000000000000000000000000000000000000000815260040161051d90612f90565b60405180910390fd5b60025460016003546105389190612e90565b1115610579576040517f08c379a0000000000000000000000000000000000000000000000000000000008152600401610570906130b4565b60405180910390fd5b6105846003546119bf565b565b61058e610454565b8111156105d0576040517f08c379a00000000000000000000000000000000000000000000000000000000081526004016105c790613146565b60405180910390fd5b806000803373ffffffffffffffffffffffffffffffffffffffff1673ffffffffffffffffffffffffffffffffffffffff168152602001908152602001600020600082825461061e9190613166565b925050819055507ef8cd1491914eeacda763b68d00307f5da12a54ba3bd70fe6647d680aa885513382604051610655929190612ef5565b60405180910390a160003373ffffffffffffffffffffffffffffffffffffffff1682604051610683906131cb565b60006040518083038185875af1925050503d80600081146106c0576040519150601f19603f3d011682016040523d82523d6000602084013e6106c5565b606091505b5050905080610709576040517f08c379a000000000000000000000000000000000000000000000000000000000815260040161070090613252565b60405180910390fd5b5050565b80600680549050816fffffffffffffffffffffffffffffffff1610610767576040517f08c379a000000000000000000000000000000000000000000000000000000000815260040161075e906132e4565b60405180910390fd5b816006816fffffffffffffffffffffffffffffffff168154811061078e5761078d613304565b5b906000526020600020906004020160030160009054906101000a900460ff16156107ed576040517f08c379a00000000000000000000000000000000000000000000000000000000081526004016107e4906133a5565b60405180910390fd5b600160003373ffffffffffffffffffffffffffffffffffffffff1673ffffffffffffffffffffffffffffffffffffffff16815260200190815260200160002060009054906101000a900460ff16610879576040517f08c379a000000000000000000000000000000000000000000000000000000000815260040161087090612f90565b60405180910390fd5b60046000846fffffffffffffffffffffffffffffffff166fffffffffffffffffffffffffffffffff16815260200190815260200160002060003373ffffffffffffffffffffffffffffffffffffffff1673ffffffffffffffffffffffffffffffffffffffff16815260200190815260200160002060009054906101000a900460ff161561093b576040517f08c379a00000000000000000000000000000000000000000000000000000000081526004016109329061345d565b60405180910390fd5b60006006846fffffffffffffffffffffffffffffffff168154811061096357610962613304565b5b90600052602060002090600402019050600160046000866fffffffffffffffffffffffffffffffff166fffffffffffffffffffffffffffffffff16815260200190815260200160002060003373ffffffffffffffffffffffffffffffffffffffff1673ffffffffffffffffffffffffffffffffffffffff16815260200190815260200160002060006101000a81548160ff02191690831515021790555080600001601881819054906101000a900467ffffffffffffffff1680929190610a2890613491565b91906101000a81548167ffffffffffffffff021916908367ffffffffffffffff16021790555050836fffffffffffffffffffffffffffffffff167fc4abff83e3afb19a95b9ace6c712ab70dcfeec6fd72adfe38a76a8f71a6b8d7660405160405180910390a250505050565b80600680549050816fffffffffffffffffffffffffffffffff1610610aee576040517f08c379a0000000000000000000000000000000000000000000000000000000008152600401610ae5906132e4565b60405180910390fd5b816006816fffffffffffffffffffffffffffffffff1681548110610b1557610b14613304565b5b906000526020600020906004020160030160009054906101000a900460ff1615610b74576040517f08c379a0000000000000000000000000000000000000000000000000000000008152600401610b6b906133a5565b60405180910390fd5b6006836fffffffffffffffffffffffffffffffff1681548110610b9a57610b99613304565b5b906000526020600020906004020160000160189054906101000a900467ffffffffffffffff1667ffffffffffffffff166006846fffffffffffffffffffffffffffffffff1681548110610bf057610bef613304565b5b906000526020600020906004020160000160109054906101000a900467ffffffffffffffff1667ffffffffffffffff161115610c61576040517f08c379a0000000000000000000000000000000000000000000000000000000008152600401610c5890613533565b60405180910390fd5b600080610c6d85611c77565b509450945050505060006004811115610c8957610c88613553565b5b826004811115610c9c57610c9b613553565b5b1480610ccc575060016004811115610cb757610cb6613553565b5b826004811115610cca57610cc9613553565b5b145b15610dea57600081806020019051810190610ce791906135c0565b905060006004811115610cfd57610cfc613553565b5b836004811115610d1057610d0f613553565b5b03610d1f57610d1e81611e8d565b5b60016004811115610d3357610d32613553565b5b836004811115610d4657610d45613553565b5b03610d5557610d5481611fa5565b5b856fffffffffffffffffffffffffffffffff167f810b75ce5d8c23a29a5b5a741c542fdd9e56118dbc2d7a1f6a190451b6fc5cbb60405160405180910390a260016006876fffffffffffffffffffffffffffffffff1681548110610dbc57610dbb613304565b5b906000526020600020906004020160030160006101000a81548160ff02191690831515021790555050611183565b60026004811115610dfe57610dfd613553565b5b826004811115610e1157610e10613553565b5b03610eb257610e1e61204f565b846fffffffffffffffffffffffffffffffff167f810b75ce5d8c23a29a5b5a741c542fdd9e56118dbc2d7a1f6a190451b6fc5cbb60405160405180910390a260016006866fffffffffffffffffffffffffffffffff1681548110610e8557610e84613304565b5b906000526020600020906004020160030160006101000a81548160ff021916908315150217905550611182565b60036004811115610ec657610ec5613553565b5b826004811115610ed957610ed8613553565b5b03610f7a57610ee66120ca565b846fffffffffffffffffffffffffffffffff167f810b75ce5d8c23a29a5b5a741c542fdd9e56118dbc2d7a1f6a190451b6fc5cbb60405160405180910390a260016006866fffffffffffffffffffffffffffffffff1681548110610f4d57610f4c613304565b5b906000526020600020906004020160030160006101000a81548160ff021916908315150217905550611181565b600480811115610f8d57610f8c613553565b5b826004811115610fa057610f9f613553565b5b0361114557600080600083806020019051810190610fbe91906136a5565b92509250925060008373ffffffffffffffffffffffffffffffffffffffff168383604051610fec9190613750565b60006040518083038185875af1925050503d8060008114611029576040519150601f19603f3d011682016040523d82523d6000602084013e61102e565b606091505b50509050600160068a6fffffffffffffffffffffffffffffffff168154811061105a57611059613304565b5b906000526020600020906004020160030160006101000a81548160ff0219169083151502179055507fecab3de0c5f272cfe8e64c31e8ebf2d65491d411a8fc9010fe05aa2534f40a7d8484846040516110b5939291906137b1565b60405180910390a1886fffffffffffffffffffffffffffffffff167f810b75ce5d8c23a29a5b5a741c542fdd9e56118dbc2d7a1f6a190451b6fc5cbb60405160405180910390a28061113c576040517f08c379a000000000000000000000000000000000000000000000000000000000815260040161113390613252565b60405180910390fd5b50505050611180565b6040517f08c379a000000000000000000000000000000000000000000000000000000000815260040161117790613861565b60405180910390fd5b5b5b5b5050505050565b600160003373ffffffffffffffffffffffffffffffffffffffff1673ffffffffffffffffffffffffffffffffffffffff16815260200190815260200160002060009054906101000a900460ff16611216576040517f08c379a000000000000000000000000000000000000000000000000000000000815260040161120d90612f90565b60405180910390fd5b600060016003546112279190613166565b11611267576040517f08c379a000000000000000000000000000000000000000000000000000000000815260040161125e906138f3565b60405180910390fd5b611272600354612152565b565b600160003373ffffffffffffffffffffffffffffffffffffffff1673ffffffffffffffffffffffffffffffffffffffff16815260200190815260200160002060009054906101000a900460ff16611300576040517f08c379a00000000000000000000000000000000000000000000000000000000081526004016112f790612f90565b60405180910390fd5b600073ffffffffffffffffffffffffffffffffffffffff168373ffffffffffffffffffffffffffffffffffffffff160361136f576040517f08c379a000000000000000000000000000000000000000000000000000000000815260040161136690613985565b60405180910390fd5b61137d60035484848461240a565b505050565b60003360008060008373ffffffffffffffffffffffffffffffffffffffff1673ffffffffffffffffffffffffffffffffffffffff1681526020019081526020016000205411611406576040517f08c379a00000000000000000000000000000000000000000000000000000000081526004016113fd90613a17565b60405180910390fd5b4791505090565b3360008060008373ffffffffffffffffffffffffffffffffffffffff1673ffffffffffffffffffffffffffffffffffffffff168152602001908152602001600020541161148f576040517f08c379a000000000000000000000000000000000000000000000000000000000815260040161148690613a17565b60405180910390fd5b6000611499610454565b905060008060003373ffffffffffffffffffffffffffffffffffffffff1673ffffffffffffffffffffffffffffffffffffffff168152602001908152602001600020819055507ef8cd1491914eeacda763b68d00307f5da12a54ba3bd70fe6647d680aa88551338260405161150f929190612ef5565b60405180910390a160003373ffffffffffffffffffffffffffffffffffffffff168260405161153d906131cb565b60006040518083038185875af1925050503d806000811461157a576040519150601f19603f3d011682016040523d82523d6000602084013e61157f565b606091505b50509050806115c3576040517f08c379a00000000000000000000000000000000000000000000000000000000081526004016115ba90613252565b60405180910390fd5b505050565b600160003373ffffffffffffffffffffffffffffffffffffffff1673ffffffffffffffffffffffffffffffffffffffff16815260200190815260200160002060009054906101000a900460ff16611654576040517f08c379a000000000000000000000000000000000000000000000000000000000815260040161164b90612f90565b60405180910390fd5b8060008060008373ffffffffffffffffffffffffffffffffffffffff1673ffffffffffffffffffffffffffffffffffffffff16815260200190815260200160002054116116d6576040517f08c379a00000000000000000000000000000000000000000000000000000000081526004016116cd90613a17565b60405180910390fd5b6116e2600354836126ec565b5050565b60006040518060c00160405280600560009054906101000a90046fffffffffffffffffffffffffffffffff166fffffffffffffffffffffffffffffffff1681526020018467ffffffffffffffff168152602001600067ffffffffffffffff1681526020016001600481111561175e5761175d613553565b5b8152602001836040516020016117749190613a37565b6040516020818303038152906040528152602001600015158152509050600681908060018154018082558091505060019003906000526020600020906004020160009091909190915060008201518160000160006101000a8154816fffffffffffffffffffffffffffffffff02191690836fffffffffffffffffffffffffffffffff16021790555060208201518160000160106101000a81548167ffffffffffffffff021916908367ffffffffffffffff16021790555060408201518160000160186101000a81548167ffffffffffffffff021916908367ffffffffffffffff16021790555060608201518160010160006101000a81548160ff0219169083600481111561188557611884613553565b5b021790555060808201518160020190805190602001906118a69291906129c5565b5060a08201518160030160006101000a81548160ff0219169083151502179055505050600560009054906101000a90046fffffffffffffffffffffffffffffffff166fffffffffffffffffffffffffffffffff167f761e86f98a09405242ba094f274d4651e9a7be87e0bcf4f244239c802c87142d8460018560405160200161192f9190613a37565b60405160208183030381529060405260405161194d93929190613aa9565b60405180910390a26005600081819054906101000a90046fffffffffffffffffffffffffffffffff168092919061198390613ae7565b91906101000a8154816fffffffffffffffffffffffffffffffff02191690836fffffffffffffffffffffffffffffffff16021790555050505050565b60006040518060c00160405280600560009054906101000a90046fffffffffffffffffffffffffffffffff166fffffffffffffffffffffffffffffffff1681526020018367ffffffffffffffff168152602001600067ffffffffffffffff16815260200160026004811115611a3757611a36613553565b5b8152602001604051806020016040528060008152508152602001600015158152509050600681908060018154018082558091505060019003906000526020600020906004020160009091909190915060008201518160000160006101000a8154816fffffffffffffffffffffffffffffffff02191690836fffffffffffffffffffffffffffffffff16021790555060208201518160000160106101000a81548167ffffffffffffffff021916908367ffffffffffffffff16021790555060408201518160000160186101000a81548167ffffffffffffffff021916908367ffffffffffffffff16021790555060608201518160010160006101000a81548160ff02191690836004811115611b4e57611b4d613553565b5b02179055506080820151816002019080519060200190611b6f9291906129c5565b5060a08201518160030160006101000a81548160ff0219169083151502179055505050600560009054906101000a90046fffffffffffffffffffffffffffffffff166fffffffffffffffffffffffffffffffff167f761e86f98a09405242ba094f274d4651e9a7be87e0bcf4f244239c802c87142d83600260405180602001604052806000815250604051611c0693929190613aa9565b60405180910390a26005600081819054906101000a90046fffffffffffffffffffffffffffffffff1680929190611c3c90613ae7565b91906101000a8154816fffffffffffffffffffffffffffffffff02191690836fffffffffffffffffffffffffffffffff160217905550505050565b60008060008060606000806006886fffffffffffffffffffffffffffffffff1681548110611ca857611ca7613304565b5b90600052602060002090600402016040518060c00160405290816000820160009054906101000a90046fffffffffffffffffffffffffffffffff166fffffffffffffffffffffffffffffffff166fffffffffffffffffffffffffffffffff1681526020016000820160109054906101000a900467ffffffffffffffff1667ffffffffffffffff1667ffffffffffffffff1681526020016000820160189054906101000a900467ffffffffffffffff1667ffffffffffffffff1667ffffffffffffffff1681526020016001820160009054906101000a900460ff166004811115611d9457611d93613553565b5b6004811115611da657611da5613553565b5b8152602001600282018054611dba90613b4e565b80601f0160208091040260200160405190810160405280929190818152602001828054611de690613b4e565b8015611e335780601f10611e0857610100808354040283529160200191611e33565b820191906000526020600020905b815481529060010190602001808311611e1657829003601f168201915b505050505081526020016003820160009054906101000a900460ff1615151515815250509050806000015181602001518260400151836060015184608001518560a001519650965096509650965096505091939550919395565b600073ffffffffffffffffffffffffffffffffffffffff168173ffffffffffffffffffffffffffffffffffffffff1603611efc576040517f08c379a0000000000000000000000000000000000000000000000000000000008152600401611ef390613bf1565b60405180910390fd5b60018060008373ffffffffffffffffffffffffffffffffffffffff1673ffffffffffffffffffffffffffffffffffffffff16815260200190815260200160002060006101000a81548160ff02191690831515021790555060026000815480929190611f6690613c11565b91905055507fffafe5c39be83f4bcf20d7e1a150f6e21c1858ea0948315ba84b6b1c386d45bb81604051611f9a9190613a37565b60405180910390a150565b6000600160008373ffffffffffffffffffffffffffffffffffffffff1673ffffffffffffffffffffffffffffffffffffffff16815260200190815260200160002060006101000a81548160ff0219169083151502179055506002600081548092919061201090613c59565b91905055507fe3dbd6acd3c10ada62e3e665dd9626366a65e4198858e252fa536fa4576beddd816040516120449190613a37565b60405180910390a150565b60025460016003546120619190612e90565b116120c8577f6ba3c2a333f19d650dada3155d5fef3b987ceb0731183eed8deff813cc53aa4360035460016003546120999190612e90565b6040516120a7929190613c82565b60405180910390a1600360008154809291906120c290613c11565b91905055505b565b6001806003546120da9190613166565b1015612137577f2b567b8631e0948848210c388529a215f0fd501d31845e46d8706b722b6c6c7160035460016003546121139190613166565b604051612121929190613c82565b60405180910390a1600354600381905550612150565b6003600081548092919061214a90613c59565b91905055505b565b60006040518060c00160405280600560009054906101000a90046fffffffffffffffffffffffffffffffff166fffffffffffffffffffffffffffffffff1681526020018367ffffffffffffffff168152602001600067ffffffffffffffff168152602001600360048111156121ca576121c9613553565b5b8152602001604051806020016040528060008152508152602001600015158152509050600681908060018154018082558091505060019003906000526020600020906004020160009091909190915060008201518160000160006101000a8154816fffffffffffffffffffffffffffffffff02191690836fffffffffffffffffffffffffffffffff16021790555060208201518160000160106101000a81548167ffffffffffffffff021916908367ffffffffffffffff16021790555060408201518160000160186101000a81548167ffffffffffffffff021916908367ffffffffffffffff16021790555060608201518160010160006101000a81548160ff021916908360048111156122e1576122e0613553565b5b021790555060808201518160020190805190602001906123029291906129c5565b5060a08201518160030160006101000a81548160ff0219169083151502179055505050600560009054906101000a90046fffffffffffffffffffffffffffffffff166fffffffffffffffffffffffffffffffff167f761e86f98a09405242ba094f274d4651e9a7be87e0bcf4f244239c802c87142d8360036040518060200160405280600081525060405161239993929190613aa9565b60405180910390a26005600081819054906101000a90046fffffffffffffffffffffffffffffffff16809291906123cf90613ae7565b91906101000a8154816fffffffffffffffffffffffffffffffff02191690836fffffffffffffffffffffffffffffffff160217905550505050565b60006040518060c00160405280600560009054906101000a90046fffffffffffffffffffffffffffffffff166fffffffffffffffffffffffffffffffff1681526020018667ffffffffffffffff168152602001600067ffffffffffffffff16815260200160048081111561248157612480613553565b5b815260200185858560405160200161249b939291906137b1565b6040516020818303038152906040528152602001600015158152509050600681908060018154018082558091505060019003906000526020600020906004020160009091909190915060008201518160000160006101000a8154816fffffffffffffffffffffffffffffffff02191690836fffffffffffffffffffffffffffffffff16021790555060208201518160000160106101000a81548167ffffffffffffffff021916908367ffffffffffffffff16021790555060408201518160000160186101000a81548167ffffffffffffffff021916908367ffffffffffffffff16021790555060608201518160010160006101000a81548160ff021916908360048111156125ac576125ab613553565b5b021790555060808201518160020190805190602001906125cd9291906129c5565b5060a08201518160030160006101000a81548160ff0219169083151502179055505050600560009054906101000a90046fffffffffffffffffffffffffffffffff166fffffffffffffffffffffffffffffffff167f761e86f98a09405242ba094f274d4651e9a7be87e0bcf4f244239c802c87142d86600487878760405160200161265a93929190613d14565b60405160208183030381529060405260405161267893929190613aa9565b60405180910390a26005600081819054906101000a90046fffffffffffffffffffffffffffffffff16809291906126ae90613ae7565b91906101000a8154816fffffffffffffffffffffffffffffffff02191690836fffffffffffffffffffffffffffffffff160217905550505050505050565b60006040518060c00160405280600560009054906101000a90046fffffffffffffffffffffffffffffffff166fffffffffffffffffffffffffffffffff1681526020018467ffffffffffffffff168152602001600067ffffffffffffffff1681526020016000600481111561276457612763613553565b5b81526020018360405160200161277a9190613a37565b6040516020818303038152906040528152602001600015158152509050600681908060018154018082558091505060019003906000526020600020906004020160009091909190915060008201518160000160006101000a8154816fffffffffffffffffffffffffffffffff02191690836fffffffffffffffffffffffffffffffff16021790555060208201518160000160106101000a81548167ffffffffffffffff021916908367ffffffffffffffff16021790555060408201518160000160186101000a81548167ffffffffffffffff021916908367ffffffffffffffff16021790555060608201518160010160006101000a81548160ff0219169083600481111561288b5761288a613553565b5b021790555060808201518160020190805190602001906128ac9291906129c5565b5060a08201518160030160006101000a81548160ff0219169083151502179055505050600560009054906101000a90046fffffffffffffffffffffffffffffffff166fffffffffffffffffffffffffffffffff167f761e86f98a09405242ba094f274d4651e9a7be87e0bcf4f244239c802c87142d846000856040516020016129359190613a37565b60405160208183030381529060405260405161295393929190613aa9565b60405180910390a26005600081819054906101000a90046fffffffffffffffffffffffffffffffff168092919061298990613ae7565b91906101000a8154816fffffffffffffffffffffffffffffffff02191690836fffffffffffffffffffffffffffffffff16021790555050505050565b8280546129d190613b4e565b90600052602060002090601f0160209004810192826129f35760008555612a3a565b82601f10612a0c57805160ff1916838001178555612a3a565b82800160010185558215612a3a579182015b82811115612a39578251825591602001919060010190612a1e565b5b509050612a479190612a4b565b5090565b5b80821115612a64576000816000905550600101612a4c565b5090565b6000604051905090565b600080fd5b600080fd5b600073ffffffffffffffffffffffffffffffffffffffff82169050919050565b6000612aa782612a7c565b9050919050565b612ab781612a9c565b8114612ac257600080fd5b50565b600081359050612ad481612aae565b92915050565b600060208284031215612af057612aef612a72565b5b6000612afe84828501612ac5565b91505092915050565b6000819050919050565b612b1a81612b07565b82525050565b6000602082019050612b356000830184612b11565b92915050565b612b4481612b07565b8114612b4f57600080fd5b50565b600081359050612b6181612b3b565b92915050565b600060208284031215612b7d57612b7c612a72565b5b6000612b8b84828501612b52565b91505092915050565b60006fffffffffffffffffffffffffffffffff82169050919050565b612bb981612b94565b8114612bc457600080fd5b50565b600081359050612bd681612bb0565b92915050565b600060208284031215612bf257612bf1612a72565b5b6000612c0084828501612bc7565b91505092915050565b600080fd5b600080fd5b6000601f19601f8301169050919050565b7f4e487b7100000000000000000000000000000000000000000000000000000000600052604160045260246000fd5b612c5c82612c13565b810181811067ffffffffffffffff82111715612c7b57612c7a612c24565b5b80604052505050565b6000612c8e612a68565b9050612c9a8282612c53565b919050565b600067ffffffffffffffff821115612cba57612cb9612c24565b5b612cc382612c13565b9050602081019050919050565b82818337600083830152505050565b6000612cf2612ced84612c9f565b612c84565b905082815260208101848484011115612d0e57612d0d612c0e565b5b612d19848285612cd0565b509392505050565b600082601f830112612d3657612d35612c09565b5b8135612d46848260208601612cdf565b91505092915050565b600080600060608486031215612d6857612d67612a72565b5b6000612d7686828701612ac5565b9350506020612d8786828701612b52565b925050604084013567ffffffffffffffff811115612da857612da7612a77565b5b612db486828701612d21565b9150509250925092565b600082825260208201905092915050565b7f4d756c746953696757616c6c65743a2056616c75652063616e6e6f742062652060008201527f3000000000000000000000000000000000000000000000000000000000000000602082015250565b6000612e2b602183612dbe565b9150612e3682612dcf565b604082019050919050565b60006020820190508181036000830152612e5a81612e1e565b9050919050565b7f4e487b7100000000000000000000000000000000000000000000000000000000600052601160045260246000fd5b6000612e9b82612b07565b9150612ea683612b07565b9250827fffffffffffffffffffffffffffffffffffffffffffffffffffffffffffffffff03821115612edb57612eda612e61565b5b828201905092915050565b612eef81612a9c565b82525050565b6000604082019050612f0a6000830185612ee6565b612f176020830184612b11565b9392505050565b7f5369676e656457616c6c65743a2043616c6c6572206973206e6f74207369676e60008201527f6572000000000000000000000000000000000000000000000000000000000000602082015250565b6000612f7a602283612dbe565b9150612f8582612f1e565b604082019050919050565b60006020820190508181036000830152612fa981612f6d565b9050919050565b7f4d756c746953696757616c6c65743a20496e646963617465642061646472657360008201527f7320746f2064656c657465206973206e6f74207369676e65722e000000000000602082015250565b600061300c603a83612dbe565b915061301782612fb0565b604082019050919050565b6000602082019050818103600083015261303b81612fff565b9050919050565b7f4d756c746953696757616c6c65743a205265717569726564207369676e61747560008201527f7265732063616e6e6f7420657863656564207369676e65727320636f756e7400602082015250565b600061309e603f83612dbe565b91506130a982613042565b604082019050919050565b600060208201905081810360008301526130cd81613091565b9050919050565b7f4d756c746953696757616c6c65743a2043616c6c6572732062616c616e63652060008201527f697320696e73756666696369656e740000000000000000000000000000000000602082015250565b6000613130602f83612dbe565b915061313b826130d4565b604082019050919050565b6000602082019050818103600083015261315f81613123565b9050919050565b600061317182612b07565b915061317c83612b07565b92508282101561318f5761318e612e61565b5b828203905092915050565b600081905092915050565b50565b60006131b560008361319a565b91506131c0826131a5565b600082019050919050565b60006131d6826131a8565b9150819050919050565b7f4d756c746953696757616c6c65743a204574686572207472616e73666572206660008201527f61696c6564000000000000000000000000000000000000000000000000000000602082015250565b600061323c602583612dbe565b9150613247826131e0565b604082019050919050565b6000602082019050818103600083015261326b8161322f565b9050919050565b7f52657175657374466163746f72793a2043616c6c65642072657175657374206460008201527f6f6573206e6f74206578697374207965742e0000000000000000000000000000602082015250565b60006132ce603283612dbe565b91506132d982613272565b604082019050919050565b600060208201905081810360008301526132fd816132c1565b9050919050565b7f4e487b7100000000000000000000000000000000000000000000000000000000600052603260045260246000fd5b7f52657175657374466163746f72793a2043616c6c65642072657175657374206860008201527f6173206265656e20657865637574656420616c72656164792e00000000000000602082015250565b600061338f603983612dbe565b915061339a82613333565b604082019050919050565b600060208201905081810360008301526133be81613382565b9050919050565b7f4d756c746953696757616c6c65743a2043616c6c65642072657175657374206860008201527f6173206265656e207369676e65642062792073656e64657220616c726561647960208201527f2e00000000000000000000000000000000000000000000000000000000000000604082015250565b6000613447604183612dbe565b9150613452826133c5565b606082019050919050565b600060208201905081810360008301526134768161343a565b9050919050565b600067ffffffffffffffff82169050919050565b600061349c8261347d565b915067ffffffffffffffff82036134b6576134b5612e61565b5b600182019050919050565b7f4d756c746953696757616c6c65743a2043616c6c65642072657175657374206960008201527f73206e6f742066756c6c79207369676e6564207965742e000000000000000000602082015250565b600061351d603783612dbe565b9150613528826134c1565b604082019050919050565b6000602082019050818103600083015261354c81613510565b9050919050565b7f4e487b7100000000000000000000000000000000000000000000000000000000600052602160045260246000fd5b600061358d82612a7c565b9050919050565b61359d81613582565b81146135a857600080fd5b50565b6000815190506135ba81613594565b92915050565b6000602082840312156135d6576135d5612a72565b5b60006135e4848285016135ab565b91505092915050565b6000815190506135fc81612b3b565b92915050565b60005b83811015613620578082015181840152602081019050613605565b8381111561362f576000848401525b50505050565b600061364861364384612c9f565b612c84565b90508281526020810184848401111561366457613663612c0e565b5b61366f848285613602565b509392505050565b600082601f83011261368c5761368b612c09565b5b815161369c848260208601613635565b91505092915050565b6000806000606084860312156136be576136bd612a72565b5b60006136cc868287016135ab565b93505060206136dd868287016135ed565b925050604084015167ffffffffffffffff8111156136fe576136fd612a77565b5b61370a86828701613677565b9150509250925092565b600081519050919050565b600061372a82613714565b613734818561319a565b9350613744818560208601613602565b80840191505092915050565b600061375c828461371f565b915081905092915050565b600082825260208201905092915050565b600061378382613714565b61378d8185613767565b935061379d818560208601613602565b6137a681612c13565b840191505092915050565b60006060820190506137c66000830186612ee6565b6137d36020830185612b11565b81810360408301526137e58184613778565b9050949350505050565b7f4d756c746953696757616c6c65743a205370656369666965642072657175657360008201527f74207479706520646f6573206e6f742065786973742e00000000000000000000602082015250565b600061384b603683612dbe565b9150613856826137ef565b604082019050919050565b6000602082019050818103600083015261387a8161383e565b9050919050565b7f4d756c746953696757616c6c65743a205265717569726564207369676e61747560008201527f7265732063616e6e6f7420626520302e00000000000000000000000000000000602082015250565b60006138dd603083612dbe565b91506138e882613881565b604082019050919050565b6000602082019050818103600083015261390c816138d0565b9050919050565b7f4d756c746953696757616c6c65743a2043616e6e6f742073656e64207472616e60008201527f73616374696f6e20746f206164647265737320302e0000000000000000000000602082015250565b600061396f603583612dbe565b915061397a82613913565b604082019050919050565b6000602082019050818103600083015261399e81613962565b9050919050565b7f57616c6c65743a20537065636966696564206164647265737320686173206e6f60008201527f2062616c616e6365000000000000000000000000000000000000000000000000602082015250565b6000613a01602883612dbe565b9150613a0c826139a5565b604082019050919050565b60006020820190508181036000830152613a30816139f4565b9050919050565b6000602082019050613a4c6000830184612ee6565b92915050565b613a5b8161347d565b82525050565b60058110613a7257613a71613553565b5b50565b6000819050613a8382613a61565b919050565b6000613a9382613a75565b9050919050565b613aa381613a88565b82525050565b6000606082019050613abe6000830186613a52565b613acb6020830185613a9a565b8181036040830152613add8184613778565b9050949350505050565b6000613af282612b94565b91506fffffffffffffffffffffffffffffffff8203613b1457613b13612e61565b5b600182019050919050565b7f4e487b7100000000000000000000000000000000000000000000000000000000600052602260045260246000fd5b60006002820490506001821680613b6657607f821691505b602082108103613b7957613b78613b1f565b5b50919050565b7f5369676e656457616c6c65743a204e6577207369676e65722063616e6e6f742060008201527f6265206164647265737320302e00000000000000000000000000000000000000602082015250565b6000613bdb602d83612dbe565b9150613be682613b7f565b604082019050919050565b60006020820190508181036000830152613c0a81613bce565b9050919050565b6000613c1c82612b07565b91507fffffffffffffffffffffffffffffffffffffffffffffffffffffffffffffffff8203613c4e57613c4d612e61565b5b600182019050919050565b6000613c6482612b07565b915060008203613c7757613c76612e61565b5b600182039050919050565b6000604082019050613c976000830185612b11565b613ca46020830184612b11565b9392505050565b60008160601b9050919050565b6000613cc382613cab565b9050919050565b6000613cd582613cb8565b9050919050565b613ced613ce882612a9c565b613cca565b82525050565b6000819050919050565b613d0e613d0982612b07565b613cf3565b82525050565b6000613d208286613cdc565b601482019150613d308285613cfd565b602082019150613d40828461371f565b915081905094935050505056fea2646970667358221220b3aebe63a5fac06e613b9ac8127327c9d0d526536900fd93748c456c0a34232464736f6c634300080d0033",
  "immutableReferences": {},
  "source": "// SPDX-License-Identifier: MIT\npragma solidity ^0.8.0;\n\nimport { SignedWallet } from \"./SignedWallet.sol\";\nimport { RequestFactory } from \"./RequestFactory.sol\";\n\n/** \n * @author kchn9\n */\ncontract MultiSigWallet is SignedWallet, RequestFactory {\n\n    event RequestSigned(uint128 indexed id);\n    event RequestExecuted(uint128 indexed id);\n    event TransactionSent(address to, uint256 value, bytes txData);\n\n    function execute(uint128 _idx) external checkOutOfBounds(_idx) notExecuted(_idx) {\n                        // todo emitEvents\n        require(_requests[_idx].requiredSignatures <= _requests[_idx].currentSignatures, \n            \"MultiSigWallet: Called request is not fully signed yet.\");\n        (/*idx*/,\n        /*requiredSignatures*/,\n        /*currentSignatures*/,\n        RequestType requestType,\n        bytes memory data,\n        /*isExecuted*/) = _getRequest(_idx);\n        if (requestType == RequestType.ADD_SIGNER || requestType == RequestType.REMOVE_SIGNER) {\n            address who = abi.decode(data, (address));\n            if (requestType == RequestType.ADD_SIGNER) {\n                _addSigner(who);\n            }\n            if (requestType == RequestType.REMOVE_SIGNER) {\n                _removeSigner(who);\n            }\n            emit RequestExecuted(_idx);\n            _requests[_idx].isExecuted = true;\n        }\n        else if (requestType == RequestType.INCREASE_REQ_SIGNATURES) {\n            _increaseRequiredSignatures();\n            emit RequestExecuted(_idx);\n            _requests[_idx].isExecuted = true;\n        }\n        else if (requestType == RequestType.DECREASE_REQ_SIGNATURES) {\n            _decreaseRequiredSignatures();\n            emit RequestExecuted(_idx);\n            _requests[_idx].isExecuted = true;\n        }\n        else if (requestType == RequestType.SEND_TRANSACTION){\n            (address to, uint256 value, bytes memory txData) = abi.decode(data, (address, uint256, bytes));\n            (bool success, /*data*/) = to.call{ value: value }(txData);\n            _requests[_idx].isExecuted = true;\n            emit TransactionSent(to, value, txData);\n            emit RequestExecuted(_idx);\n            require(success, \"MultiSigWallet: Ether transfer failed\");\n        }\n        else {\n            revert(\"MultiSigWallet: Specified request type does not exist.\");\n        }\n    }\n\n    function sign(uint128 _idx) external checkOutOfBounds(_idx) notExecuted(_idx) onlySigner {\n        require(!isRequestSignedBy[_idx][msg.sender], \"MultiSigWallet: Called request has been signed by sender already.\");\n        RequestFactory.Request storage requestToSign = _requests[_idx];\n        isRequestSignedBy[_idx][msg.sender] = true;\n        requestToSign.currentSignatures++;\n        emit RequestSigned(_idx);\n    }\n\n    function addSigner(address _who) external onlySigner hasBalance(_who) {\n        _createAddSignerRequest(uint64(_requiredSignatures), _who);\n    }\n\n    function removeSigner(address _who) external onlySigner {\n        require(_signers[_who], \"MultiSigWallet: Indicated address to delete is not signer.\");\n        _createRemoveSignerRequest(uint64(_requiredSignatures), _who); \n    }\n\n    function increaseRequiredSignatures() external onlySigner {\n        require(_requiredSignatures + 1 <= _signersCount, \"MultiSigWallet: Required signatures cannot exceed signers count\");\n        _createIncrementReqSignaturesRequest(uint64(_requiredSignatures));\n    }\n\n    function decreaseRequiredSignatures() external onlySigner {\n        require(_requiredSignatures - 1 > 0, \"MultiSigWallet: Required signatures cannot be 0.\");\n        _createDecrementReqSignaturesRequest(uint64(_requiredSignatures));\n    }\n\n    function sendTx(\n        address _to, \n        uint256 _value, \n        bytes memory _data\n    ) external onlySigner {\n        require(_to != address(0), \"MultiSigWallet: Cannot send transaction to address 0.\");\n        _createSendTransactionRequest(uint64(_requiredSignatures), _to, _value, _data);\n    }\n\n    function deposit() public override payable {\n        require(msg.value > 0, \"MultiSigWallet: Value cannot be 0\");\n        _balances[msg.sender] += msg.value;\n        emit FundsDeposit(msg.sender, msg.value);\n    }\n\n    receive() external override payable {\n        deposit();\n    }\n    \n    function withdraw(uint256 _amount) external override {\n        require(_amount <= getBalance(), \"MultiSigWallet: Callers balance is insufficient\");\n        _balances[msg.sender] -= _amount;\n        emit FundsWithdraw(msg.sender, _amount);\n        (bool success, /*data*/) = address(msg.sender).call{ value: _amount}(\"\");\n        require(success, \"MultiSigWallet: Ether transfer failed\");\n    }\n\n    function withdrawAll() external override hasBalance(msg.sender) {\n        uint256 amount = getBalance();\n        _balances[msg.sender] = 0;\n        emit FundsWithdraw(msg.sender, amount);\n        (bool success, /*data*/) = address(msg.sender).call{ value: amount}(\"\");\n        require(success, \"MultiSigWallet: Ether transfer failed\");\n    }\n\n    function getBalance() public override view returns(uint256) {\n        return _balances[msg.sender];\n    }\n\n    /// @notice Getter for contract balance\n    function getContractBalance() hasBalance(msg.sender) public view returns(uint256) {\n        return address(this).balance;\n    }\n\n}",
  "sourcePath": "/Users/matkuch/Code/multi-sig-wallet/contracts/MultiSigWallet.sol",
  "compiler": {
    "name": "solc",
    "version": "0.8.13+commit.abaa5c0e.Emscripten.clang"
  },
  "schemaVersion": "3.4.7",
  "updatedAt": "2022-04-23T13:39:21.911Z",
  "networkType": "ethereum",
  "devdoc": {
    "author": "kchn9",
    "kind": "dev",
    "methods": {},
    "version": 1
  },
  "userdoc": {
    "events": {
      "NewSigner(address)": {
        "notice": "Indicates if signer was added/removed"
      }
    },
    "kind": "user",
    "methods": {
      "deposit()": {
        "notice": "Deposit user funds "
      },
      "getBalance()": {
        "notice": "Getter for user balance"
      },
      "getContractBalance()": {
        "notice": "Getter for contract balance"
      },
      "withdraw(uint256)": {
        "notice": "Allow owner to withdraw only their funds"
      }
    },
    "version": 1
  }
}