{
  "contractName": "SignedWallet",
  "abi": [
    {
      "inputs": [],
      "stateMutability": "nonpayable",
      "type": "constructor"
    },
    {
      "anonymous": false,
      "inputs": [
        {
          "indexed": false,
          "internalType": "address",
          "name": "who",
          "type": "address"
        }
      ],
      "name": "DeleteSigner",
      "type": "event"
    },
    {
      "anonymous": false,
      "inputs": [
        {
          "indexed": false,
          "internalType": "address",
          "name": "who",
          "type": "address"
        },
        {
          "indexed": false,
          "internalType": "uint256",
          "name": "amount",
          "type": "uint256"
        }
      ],
      "name": "FundsDeposit",
      "type": "event"
    },
    {
      "anonymous": false,
      "inputs": [
        {
          "indexed": false,
          "internalType": "address",
          "name": "who",
          "type": "address"
        },
        {
          "indexed": false,
          "internalType": "uint256",
          "name": "amount",
          "type": "uint256"
        }
      ],
      "name": "FundsWithdraw",
      "type": "event"
    },
    {
      "anonymous": false,
      "inputs": [
        {
          "indexed": false,
          "internalType": "address",
          "name": "who",
          "type": "address"
        }
      ],
      "name": "NewSigner",
      "type": "event"
    },
    {
      "anonymous": false,
      "inputs": [
        {
          "indexed": false,
          "internalType": "uint256",
          "name": "oldVal",
          "type": "uint256"
        },
        {
          "indexed": false,
          "internalType": "uint256",
          "name": "newVal",
          "type": "uint256"
        }
      ],
      "name": "RequiredSignaturesDecreased",
      "type": "event"
    },
    {
      "anonymous": false,
      "inputs": [
        {
          "indexed": false,
          "internalType": "uint256",
          "name": "oldVal",
          "type": "uint256"
        },
        {
          "indexed": false,
          "internalType": "uint256",
          "name": "newVal",
          "type": "uint256"
        }
      ],
      "name": "RequiredSignaturesIncreased",
      "type": "event"
    },
    {
      "inputs": [],
      "name": "deposit",
      "outputs": [],
      "stateMutability": "payable",
      "type": "function"
    },
    {
      "inputs": [],
      "name": "getBalance",
      "outputs": [
        {
          "internalType": "uint256",
          "name": "",
          "type": "uint256"
        }
      ],
      "stateMutability": "view",
      "type": "function"
    },
    {
      "inputs": [
        {
          "internalType": "uint256",
          "name": "_amount",
          "type": "uint256"
        }
      ],
      "name": "withdraw",
      "outputs": [],
      "stateMutability": "nonpayable",
      "type": "function"
    },
    {
      "inputs": [],
      "name": "withdrawAll",
      "outputs": [],
      "stateMutability": "nonpayable",
      "type": "function"
    },
    {
      "stateMutability": "payable",
      "type": "receive"
    }
  ],
  "bytecode": "0x608060405234801561001057600080fd5b5060018060003373ffffffffffffffffffffffffffffffffffffffff1673ffffffffffffffffffffffffffffffffffffffff16815260200190815260200160002060006101000a81548160ff02191690831515021790555060016002819055506001600381905550610198806100876000396000f3fe6080604052600436106100435760003560e01c806312065fe01461004f5780632e1a7d4d1461007a578063853828b6146100a3578063d0e30db0146100ba5761004a565b3661004a57005b600080fd5b34801561005b57600080fd5b506100646100c4565b60405161007191906100e9565b60405180910390f35b34801561008657600080fd5b506100a1600480360381019061009c9190610135565b6100c9565b005b3480156100af57600080fd5b506100b86100cc565b005b6100c26100ce565b005b600090565b50565b565b565b6000819050919050565b6100e3816100d0565b82525050565b60006020820190506100fe60008301846100da565b92915050565b600080fd5b610112816100d0565b811461011d57600080fd5b50565b60008135905061012f81610109565b92915050565b60006020828403121561014b5761014a610104565b5b600061015984828501610120565b9150509291505056fea26469706673582212208cfdaacdc0ce3716a3906bebcb203eb871f844acdbfcc81a683b327b97be391e64736f6c634300080d0033",
  "immutableReferences": {},
  "source": "// SPDX-License-Identifier: MIT\npragma solidity ^0.8.0;\n\nimport \"./Wallet.sol\";\n\n/**\n * @notice Contract that adds potential 'signing' mechanism used for authenticating some calls in future contracts.\n * @author kchn9\n */\n\ncontract SignedWallet is Wallet {\n\n    /**\n     * @notice Indicates if signer was added/removed\n     * @param who new/removed signed address\n     */\n    event NewSigner(address who); \n    event DeleteSigner(address who);\n\n    /**\n     */\n    event RequiredSignaturesIncreased(uint oldVal, uint newVal);\n    event RequiredSignaturesDecreased(uint oldVal, uint newVal);\n    \n    /// @notice Keep track of users with signer role\n    mapping(address => bool) internal _signers;\n\n    /// @notice Access modifier to prevent calls from 'not-signer' user\n    modifier onlySigner {\n        require(_signers[msg.sender], \"SignedWallet: Caller is not signer\");\n        _;\n    }\n\n    /// @notice Wallet creator is first signer\n    constructor() {\n        _signers[msg.sender] = true;\n        _signersCount = 1;\n        _requiredSignatures = 1;\n    }\n\n    /// @notice Counts signers\n    uint internal _signersCount;\n    /// @notice Represents how much signatures are needed for action\n    uint internal _requiredSignatures;\n\n    /// @notice Adds role 'signer' to specified address\n    function _addSigner(address _who) internal {\n        require(_who != address(0), \"SignedWallet: New signer cannot be address 0.\");\n        _signers[_who] = true;\n        _signersCount++;\n        emit NewSigner(_who);\n    }\n\n    /// @notice Removes role 'signer' from specified address\n    function _removeSigner(address _who) internal {\n        _signers[_who] = false;\n        _signersCount--;\n        emit DeleteSigner(_who);\n    }\n\n    function _increaseRequiredSignatures() internal {\n        if (_requiredSignatures + 1 <= _signersCount) {\n            emit RequiredSignaturesIncreased(_requiredSignatures, _requiredSignatures + 1);\n            _requiredSignatures++;\n        }\n    }\n\n    function _decreaseRequiredSignatures() internal {\n        if (_requiredSignatures - 1 < 1) {\n            emit RequiredSignaturesDecreased(_requiredSignatures, _requiredSignatures - 1);\n            _requiredSignatures = _requiredSignatures;\n        } else {\n            _requiredSignatures--;\n        }\n    }\n\n}",
  "sourcePath": "/Users/matkuch/Code/multi-sig-wallet/contracts/SignedWallet.sol",
  "compiler": {
    "name": "solc",
    "version": "0.8.13+commit.abaa5c0e.Emscripten.clang"
  },
  "schemaVersion": "3.4.7",
  "updatedAt": "2022-04-23T13:37:54.218Z",
  "devdoc": {
    "author": "kchn9",
    "events": {
      "NewSigner(address)": {
        "params": {
          "who": "new/removed signed address"
        }
      }
    },
    "kind": "dev",
    "methods": {},
    "version": 1
  },
  "userdoc": {
    "events": {
      "NewSigner(address)": {
        "notice": "Indicates if signer was added/removed"
      }
    },
    "kind": "user",
    "methods": {
      "constructor": {
        "notice": "Wallet creator is first signer"
      },
      "deposit()": {
        "notice": "Deposit user funds "
      },
      "getBalance()": {
        "notice": "Getter for user balance"
      },
      "withdraw(uint256)": {
        "notice": "Allow owner to withdraw only their funds"
      }
    },
    "notice": "Contract that adds potential 'signing' mechanism used for authenticating some calls in future contracts.",
    "version": 1
  }
}