{
  "contractName": "Wallet",
  "abi": [
    {
      "anonymous": false,
      "inputs": [
        {
          "indexed": false,
          "internalType": "address",
          "name": "who",
          "type": "address"
        },
        {
          "indexed": false,
          "internalType": "uint256",
          "name": "amount",
          "type": "uint256"
        }
      ],
      "name": "FundsDeposit",
      "type": "event"
    },
    {
      "anonymous": false,
      "inputs": [
        {
          "indexed": false,
          "internalType": "address",
          "name": "who",
          "type": "address"
        },
        {
          "indexed": false,
          "internalType": "uint256",
          "name": "amount",
          "type": "uint256"
        }
      ],
      "name": "FundsWithdraw",
      "type": "event"
    },
    {
      "stateMutability": "payable",
      "type": "receive"
    },
    {
      "inputs": [],
      "name": "deposit",
      "outputs": [],
      "stateMutability": "payable",
      "type": "function"
    },
    {
      "inputs": [
        {
          "internalType": "uint256",
          "name": "_amount",
          "type": "uint256"
        }
      ],
      "name": "withdraw",
      "outputs": [],
      "stateMutability": "nonpayable",
      "type": "function"
    },
    {
      "inputs": [],
      "name": "withdrawAll",
      "outputs": [],
      "stateMutability": "nonpayable",
      "type": "function"
    },
    {
      "inputs": [],
      "name": "getBalance",
      "outputs": [
        {
          "internalType": "uint256",
          "name": "",
          "type": "uint256"
        }
      ],
      "stateMutability": "view",
      "type": "function"
    }
  ],
  "bytecode": "0x608060405234801561001057600080fd5b50610198806100206000396000f3fe6080604052600436106100435760003560e01c806312065fe01461004f5780632e1a7d4d1461007a578063853828b6146100a3578063d0e30db0146100ba5761004a565b3661004a57005b600080fd5b34801561005b57600080fd5b506100646100c4565b60405161007191906100e9565b60405180910390f35b34801561008657600080fd5b506100a1600480360381019061009c9190610135565b6100c9565b005b3480156100af57600080fd5b506100b86100cc565b005b6100c26100ce565b005b600090565b50565b565b565b6000819050919050565b6100e3816100d0565b82525050565b60006020820190506100fe60008301846100da565b92915050565b600080fd5b610112816100d0565b811461011d57600080fd5b50565b60008135905061012f81610109565b92915050565b60006020828403121561014b5761014a610104565b5b600061015984828501610120565b9150509291505056fea2646970667358221220dac3e112237cb66d8e52a5df551b6410e7d64f7632e679365bb7e5ccddbf122b64736f6c634300080d0033",
  "immutableReferences": {},
  "source": "// SPDX-License-Identifier: MIT\npragma solidity ^0.8.0;\n\n/** \n * Abstract contract implementing core features of wallet\n * @author kchn9\n */\ncontract Wallet {\n\n    event FundsDeposit(address who, uint256 amount);\n    event FundsWithdraw(address who, uint256 amount);\n\n    /// @notice Keep track of users balances\n    mapping (address => uint256) internal _balances;\n\n    /// @notice Checks if specified user has\n    modifier hasBalance(address _who) {\n        require(_balances[_who] > 0, \"Wallet: Specified address has no balance\");\n        _;\n    }\n    \n    /// @notice Deposit user funds \n    function deposit() public virtual payable {}\n\n    /// @notice Fallback - any funds sent directly to contract will be deposited\n    receive() external virtual payable {}\n    \n    /// @notice Allow owner to withdraw only their funds\n    function withdraw(uint256 _amount) virtual external {}\n\n    function withdrawAll() virtual external {}\n\n    /// @notice Getter for user balance\n    function getBalance() public view virtual returns(uint256) {}\n\n}",
  "sourcePath": "/Users/matkuch/Code/multi-sig-wallet/contracts/Wallet.sol",
  "compiler": {
    "name": "solc",
    "version": "0.8.13+commit.abaa5c0e.Emscripten.clang"
  },
  "schemaVersion": "3.4.7",
  "updatedAt": "2022-04-23T13:37:54.223Z",
  "devdoc": {
    "author": "kchn9",
    "kind": "dev",
    "methods": {},
    "version": 1
  },
  "userdoc": {
    "kind": "user",
    "methods": {
      "deposit()": {
        "notice": "Deposit user funds "
      },
      "getBalance()": {
        "notice": "Getter for user balance"
      },
      "withdraw(uint256)": {
        "notice": "Allow owner to withdraw only their funds"
      }
    },
    "notice": "Abstract contract implementing core features of wallet",
    "version": 1
  }
}